:0C08DD000A083F065B4F666D7D077F6FC9
:1008C800EF1FAC0670011E4C600A7D027CEFDCFE57
:0408D800DDFC80ECD7
:0108DC0022F9
:10088C00EF24FE600904700AD2B4C2B58004C2B46D
:10089C00D2B574082DF8E6F5A07F017E001208C8C9
:0408AC00E4F5A022AD
:1008B000D2B0C2B17D017C007F0112088C7D037C27
:0808C000007F0212088C80EC9D
:03000000020800F3
:0C080000787FE4F6D8FD758111020847EE
:10080C000208B0E493A3F8E493A34003F68001F24A
:10081C0008DFF48029E493A3F85407240CC8C333ED
:10082C00C4540F4420C8834004F456800146F6DFBC
:10083C00E4800B01020408102040809008DDE47E67
:10084C00019360BCA3FF543F30E509541FFEE493B1
:10085C00A360010ECF54C025E060A840B8E493A378
:10086C00FAE493A3F8E493A3C8C582C8CAC583CAA3
:10087C00F0A3C8C582C8CAC583CADFE9DEE780BE5B
:0108E900000E
:00000001FF
