:0C0923000A083F065B4F666D7D077F6F82
:10090E00EF1FAC0670011E4C600A7D027CEFDCFE10
:04091E00DDFC80EC90
:0109220022B2
:03088C00E4FDFC8C
:10088F00EF24FE601414601914601A14601F1460B2
:10089F002024057022C2B58002D2B5C2B6C2B7807D
:1008AF0016C2B58002D2B5D2B6C2B7800AC2B58021
:1008BF0002D2B5C2B6D2B774082DF8E6F5A07F0103
:0908CF007E0012090EE4F5A022DE
:1008D800D2B0C2B1C295C296D2977F0112088C7F5E
:1008E8000212088CE4FDFC7F0312088FE4FDFC7FF4
:1008F8000412088FE4FDFC7F0512088FE4FDFC7FDD
:060908000612088F80D4E6
:03000000020800F3
:0C080000787FE4F6D8FD758111020847EE
:10080C000208D8E493A3F8E493A34003F68001F222
:10081C0008DFF48029E493A3F85407240CC8C333ED
:10082C00C4540F4420C8834004F456800146F6DFBC
:10083C00E4800B0102040810204080900923E47E20
:10084C00019360BCA3FF543F30E509541FFEE493B1
:10085C00A360010ECF54C025E060A840B8E493A378
:10086C00FAE493A3F8E493A3C8C582C8CAC583CAA3
:10087C00F0A3C8C582C8CAC583CADFE9DEE780BE5B
:01092F0000C7
:00000001FF
